{
  "_format": "hh-sol-artifact-1",
  "contractName": "World",
  "sourceName": "contracts/World.sol",
  "abi": [
    {
      "anonymous": false,
      "inputs": [
        {
          "indexed": true,
          "internalType": "address",
          "name": "sword",
          "type": "address"
        },
        {
          "indexed": true,
          "internalType": "uint256",
          "name": "tokenId",
          "type": "uint256"
        }
      ],
      "name": "ItemExported",
      "type": "event"
    },
    {
      "anonymous": false,
      "inputs": [
        {
          "indexed": true,
          "internalType": "address",
          "name": "sword",
          "type": "address"
        },
        {
          "indexed": true,
          "internalType": "uint256",
          "name": "tokenId",
          "type": "uint256"
        }
      ],
      "name": "ItemImported",
      "type": "event"
    },
    {
      "inputs": [
        {
          "internalType": "address",
          "name": "sword",
          "type": "address"
        },
        {
          "internalType": "uint256",
          "name": "tokenId",
          "type": "uint256"
        }
      ],
      "name": "exportItem",
      "outputs": [],
      "stateMutability": "nonpayable",
      "type": "function"
    },
    {
      "inputs": [
        {
          "internalType": "address",
          "name": "sword",
          "type": "address"
        },
        {
          "internalType": "uint256",
          "name": "tokenId",
          "type": "uint256"
        }
      ],
      "name": "importItem",
      "outputs": [],
      "stateMutability": "nonpayable",
      "type": "function"
    },
    {
      "inputs": [
        {
          "internalType": "address",
          "name": "",
          "type": "address"
        },
        {
          "internalType": "uint256",
          "name": "",
          "type": "uint256"
        }
      ],
      "name": "tokenOwners",
      "outputs": [
        {
          "internalType": "address",
          "name": "",
          "type": "address"
        }
      ],
      "stateMutability": "view",
      "type": "function"
    }
  ],
  "bytecode": "0x6080604052348015600f57600080fd5b506106a68061001f6000396000f3fe608060405234801561001057600080fd5b50600436106100415760003560e01c806387a885c4146100465780638b5e51d214610062578063928abce614610092575b600080fd5b610060600480360381019061005b9190610543565b6100ae565b005b61007c60048036038101906100779190610543565b6101f3565b6040516100899190610592565b60405180910390f35b6100ac60048036038101906100a79190610543565b610235565b005b8173ffffffffffffffffffffffffffffffffffffffff166323b872dd3330846040518463ffffffff1660e01b81526004016100eb939291906105bc565b600060405180830381600087803b15801561010557600080fd5b505af1158015610119573d6000803e3d6000fd5b50505050336000808473ffffffffffffffffffffffffffffffffffffffff1673ffffffffffffffffffffffffffffffffffffffff168152602001908152602001600020600083815260200190815260200160002060006101000a81548173ffffffffffffffffffffffffffffffffffffffff021916908373ffffffffffffffffffffffffffffffffffffffff160217905550808273ffffffffffffffffffffffffffffffffffffffff167f463561ef1e65ad6c24f4b108d244842b3bcc2cc7409771c7a16a9ef031c7687060405160405180910390a35050565b60006020528160005260406000206020528060005260406000206000915091509054906101000a900473ffffffffffffffffffffffffffffffffffffffff1681565b3373ffffffffffffffffffffffffffffffffffffffff166000808473ffffffffffffffffffffffffffffffffffffffff1673ffffffffffffffffffffffffffffffffffffffff168152602001908152602001600020600083815260200190815260200160002060009054906101000a900473ffffffffffffffffffffffffffffffffffffffff1673ffffffffffffffffffffffffffffffffffffffff1614610312576040517f08c379a000000000000000000000000000000000000000000000000000000000815260040161030990610650565b60405180910390fd5b8173ffffffffffffffffffffffffffffffffffffffff166323b872dd306000808673ffffffffffffffffffffffffffffffffffffffff1673ffffffffffffffffffffffffffffffffffffffff168152602001908152602001600020600085815260200190815260200160002060009054906101000a900473ffffffffffffffffffffffffffffffffffffffff16846040518463ffffffff1660e01b81526004016103be939291906105bc565b600060405180830381600087803b1580156103d857600080fd5b505af11580156103ec573d6000803e3d6000fd5b505050506000808373ffffffffffffffffffffffffffffffffffffffff1673ffffffffffffffffffffffffffffffffffffffff168152602001908152602001600020600082815260200190815260200160002060006101000a81549073ffffffffffffffffffffffffffffffffffffffff0219169055808273ffffffffffffffffffffffffffffffffffffffff167f2601a4f37d1e1eaff827baad126891b72771c8316efb5eb5c8dfe3827c4a92fc60405160405180910390a35050565b600080fd5b600073ffffffffffffffffffffffffffffffffffffffff82169050919050565b60006104da826104af565b9050919050565b6104ea816104cf565b81146104f557600080fd5b50565b600081359050610507816104e1565b92915050565b6000819050919050565b6105208161050d565b811461052b57600080fd5b50565b60008135905061053d81610517565b92915050565b6000806040838503121561055a576105596104aa565b5b6000610568858286016104f8565b92505060206105798582860161052e565b9150509250929050565b61058c816104cf565b82525050565b60006020820190506105a76000830184610583565b92915050565b6105b68161050d565b82525050565b60006060820190506105d16000830186610583565b6105de6020830185610583565b6105eb60408301846105ad565b949350505050565b600082825260208201905092915050565b7f596f7520617265206e6f7420746865206f726967696e616c206f776e65720000600082015250565b600061063a601e836105f3565b915061064582610604565b602082019050919050565b600060208201905081810360008301526106698161062d565b905091905056fea2646970667358221220948a9e9c0400a6ddb6c186123c801ddd0ca452af0d94cd9635da74cc24de5dbe64736f6c634300081b0033",
  "linkReferences": {},
  "deployedLinkReferences": {}
}